:100000000C942A000C9434000C9434000C943400AA
:100010000C9434000C9434000C9434000C94340090
:100020000C9434000C9434000C9434000C94340080
:100030000C9434000C9434000C9434000C94340070
:100040000C9434000C9434000C9434000C94340060
:100050000C94340011241FBECFE5D4E0DEBFCDBF29
:100060000E9449000C948D000C94000084EE86B927
:1000700010BE0895806487B984EC99E00197F1F788
:1000800024B145B1942F80E030E0282B392BC901F1
:100090000895DF92EF92FF920F931F938FEF81BB32
:1000A00084EE86B910BE20E4D22EA4ECB9E091E42F
:1000B000E92E88E0F82E0AE012E0D7B8CD010197CA
:1000C000F1F794B185B1F82FE0E0492F50E04E2BC5
:1000D0005F2BE7B8CD010197F1F794B185B1782F87
:1000E00060E0292F30E0262B372B82E04736580777
:1000F00064F482E02736380714F402BBDECF82E0D6
:100100002736380711F0F2BAD8CF48565240ACF231
:0E0110002756324094F612BBD0CFF894FFCFA2
:00000001FF
